{
  "_format": "hh-sol-artifact-1",
  "contractName": "OracleContract",
  "sourceName": "contracts/OracleContract.sol",
  "abi": [
    {
      "inputs": [],
      "stateMutability": "nonpayable",
      "type": "constructor"
    },
    {
      "anonymous": false,
      "inputs": [
        {
          "indexed": false,
          "internalType": "string",
          "name": "username1",
          "type": "string"
        },
        {
          "indexed": false,
          "internalType": "string",
          "name": "username2",
          "type": "string"
        },
        {
          "indexed": false,
          "internalType": "string",
          "name": "gameName",
          "type": "string"
        }
      ],
      "name": "CallbackGetWinner",
      "type": "event"
    },
    {
      "anonymous": false,
      "inputs": [
        {
          "indexed": false,
          "internalType": "string",
          "name": "winner",
          "type": "string"
        }
      ],
      "name": "WinnerIsSet",
      "type": "event"
    },
    {
      "inputs": [
        {
          "internalType": "string",
          "name": "username1",
          "type": "string"
        },
        {
          "internalType": "string",
          "name": "username2",
          "type": "string"
        },
        {
          "internalType": "string",
          "name": "gameName",
          "type": "string"
        }
      ],
      "name": "getWinner",
      "outputs": [],
      "stateMutability": "nonpayable",
      "type": "function"
    },
    {
      "inputs": [],
      "name": "oracleOwner",
      "outputs": [
        {
          "internalType": "address",
          "name": "",
          "type": "address"
        }
      ],
      "stateMutability": "view",
      "type": "function"
    },
    {
      "inputs": [
        {
          "internalType": "string",
          "name": "winner",
          "type": "string"
        }
      ],
      "name": "setWinner",
      "outputs": [],
      "stateMutability": "nonpayable",
      "type": "function"
    }
  ],
  "bytecode": "0x608060405234801561001057600080fd5b50336000806101000a81548173ffffffffffffffffffffffffffffffffffffffff021916908373ffffffffffffffffffffffffffffffffffffffff160217905550610503806100606000396000f3fe608060405234801561001057600080fd5b50600436106100415760003560e01c806383ca14d514610046578063a578be1614610062578063c35dee3414610080575b600080fd5b610060600480360381019061005b9190610294565b61009c565b005b61006a6100dc565b604051610077919061037c565b60405180910390f35b61009a60048036038101906100959190610397565b610100565b005b7f3be8b6185ef56eed69207e34c8d758a57cbfc332dac69434d5b06f202a0654688383836040516100cf9392919061045f565b60405180910390a1505050565b60008054906101000a900473ffffffffffffffffffffffffffffffffffffffff1681565b7fac0654766538a26bc1c6d79759119180b5b3b865ab4f20db2069a02171dacc018160405161012f91906104ab565b60405180910390a150565b6000604051905090565b600080fd5b600080fd5b600080fd5b600080fd5b6000601f19601f8301169050919050565b7f4e487b7100000000000000000000000000000000000000000000000000000000600052604160045260246000fd5b6101a182610158565b810181811067ffffffffffffffff821117156101c0576101bf610169565b5b80604052505050565b60006101d361013a565b90506101df8282610198565b919050565b600067ffffffffffffffff8211156101ff576101fe610169565b5b61020882610158565b9050602081019050919050565b82818337600083830152505050565b6000610237610232846101e4565b6101c9565b90508281526020810184848401111561025357610252610153565b5b61025e848285610215565b509392505050565b600082601f83011261027b5761027a61014e565b5b813561028b848260208601610224565b91505092915050565b6000806000606084860312156102ad576102ac610144565b5b600084013567ffffffffffffffff8111156102cb576102ca610149565b5b6102d786828701610266565b935050602084013567ffffffffffffffff8111156102f8576102f7610149565b5b61030486828701610266565b925050604084013567ffffffffffffffff81111561032557610324610149565b5b61033186828701610266565b9150509250925092565b600073ffffffffffffffffffffffffffffffffffffffff82169050919050565b60006103668261033b565b9050919050565b6103768161035b565b82525050565b6000602082019050610391600083018461036d565b92915050565b6000602082840312156103ad576103ac610144565b5b600082013567ffffffffffffffff8111156103cb576103ca610149565b5b6103d784828501610266565b91505092915050565b600081519050919050565b600082825260208201905092915050565b60005b8381101561041a5780820151818401526020810190506103ff565b60008484015250505050565b6000610431826103e0565b61043b81856103eb565b935061044b8185602086016103fc565b61045481610158565b840191505092915050565b600060608201905081810360008301526104798186610426565b9050818103602083015261048d8185610426565b905081810360408301526104a18184610426565b9050949350505050565b600060208201905081810360008301526104c58184610426565b90509291505056fea2646970667358221220088c53e6e5e061e69a73cd9a84e9bde620676562cd1523d667d108bf9bcebec864736f6c63430008130033",
  "linkReferences": {},
  "deployedLinkReferences": {}
}